{
  "_format": "hh-sol-artifact-1",
  "contractName": "MultiToken",
  "sourceName": "contracts/MultiToken.sol",
  "abi": [
    {
      "inputs": [],
      "stateMutability": "nonpayable",
      "type": "constructor"
    },
    {
      "anonymous": false,
      "inputs": [
        {
          "indexed": true,
          "internalType": "address",
          "name": "account",
          "type": "address"
        },
        {
          "indexed": true,
          "internalType": "address",
          "name": "operator",
          "type": "address"
        },
        {
          "indexed": false,
          "internalType": "bool",
          "name": "approved",
          "type": "bool"
        }
      ],
      "name": "ApprovalForAll",
      "type": "event"
    },
    {
      "anonymous": false,
      "inputs": [
        {
          "indexed": false,
          "internalType": "address",
          "name": "account",
          "type": "address"
        }
      ],
      "name": "Paused",
      "type": "event"
    },
    {
      "anonymous": false,
      "inputs": [
        {
          "indexed": true,
          "internalType": "address",
          "name": "operator",
          "type": "address"
        },
        {
          "indexed": true,
          "internalType": "address",
          "name": "from",
          "type": "address"
        },
        {
          "indexed": true,
          "internalType": "address",
          "name": "to",
          "type": "address"
        },
        {
          "indexed": false,
          "internalType": "uint256[]",
          "name": "ids",
          "type": "uint256[]"
        },
        {
          "indexed": false,
          "internalType": "uint256[]",
          "name": "values",
          "type": "uint256[]"
        }
      ],
      "name": "TransferBatch",
      "type": "event"
    },
    {
      "anonymous": false,
      "inputs": [
        {
          "indexed": true,
          "internalType": "address",
          "name": "operator",
          "type": "address"
        },
        {
          "indexed": true,
          "internalType": "address",
          "name": "from",
          "type": "address"
        },
        {
          "indexed": true,
          "internalType": "address",
          "name": "to",
          "type": "address"
        },
        {
          "indexed": false,
          "internalType": "uint256",
          "name": "id",
          "type": "uint256"
        },
        {
          "indexed": false,
          "internalType": "uint256",
          "name": "value",
          "type": "uint256"
        }
      ],
      "name": "TransferSingle",
      "type": "event"
    },
    {
      "anonymous": false,
      "inputs": [
        {
          "indexed": false,
          "internalType": "string",
          "name": "value",
          "type": "string"
        },
        {
          "indexed": true,
          "internalType": "uint256",
          "name": "id",
          "type": "uint256"
        }
      ],
      "name": "URI",
      "type": "event"
    },
    {
      "anonymous": false,
      "inputs": [
        {
          "indexed": false,
          "internalType": "address",
          "name": "account",
          "type": "address"
        }
      ],
      "name": "Unpaused",
      "type": "event"
    },
    {
      "inputs": [
        {
          "internalType": "address",
          "name": "account",
          "type": "address"
        },
        {
          "internalType": "uint256",
          "name": "id",
          "type": "uint256"
        }
      ],
      "name": "balanceOf",
      "outputs": [
        {
          "internalType": "uint256",
          "name": "",
          "type": "uint256"
        }
      ],
      "stateMutability": "view",
      "type": "function"
    },
    {
      "inputs": [
        {
          "internalType": "address[]",
          "name": "accounts",
          "type": "address[]"
        },
        {
          "internalType": "uint256[]",
          "name": "ids",
          "type": "uint256[]"
        }
      ],
      "name": "balanceOfBatch",
      "outputs": [
        {
          "internalType": "uint256[]",
          "name": "",
          "type": "uint256[]"
        }
      ],
      "stateMutability": "view",
      "type": "function"
    },
    {
      "inputs": [
        {
          "internalType": "address",
          "name": "account",
          "type": "address"
        },
        {
          "internalType": "uint256",
          "name": "id",
          "type": "uint256"
        },
        {
          "internalType": "uint256",
          "name": "value",
          "type": "uint256"
        }
      ],
      "name": "burn",
      "outputs": [],
      "stateMutability": "nonpayable",
      "type": "function"
    },
    {
      "inputs": [
        {
          "internalType": "address",
          "name": "account",
          "type": "address"
        },
        {
          "internalType": "uint256[]",
          "name": "ids",
          "type": "uint256[]"
        },
        {
          "internalType": "uint256[]",
          "name": "values",
          "type": "uint256[]"
        }
      ],
      "name": "burnBatch",
      "outputs": [],
      "stateMutability": "nonpayable",
      "type": "function"
    },
    {
      "inputs": [
        {
          "internalType": "uint256",
          "name": "id",
          "type": "uint256"
        }
      ],
      "name": "exists",
      "outputs": [
        {
          "internalType": "bool",
          "name": "",
          "type": "bool"
        }
      ],
      "stateMutability": "view",
      "type": "function"
    },
    {
      "inputs": [
        {
          "internalType": "address",
          "name": "account",
          "type": "address"
        },
        {
          "internalType": "address",
          "name": "operator",
          "type": "address"
        }
      ],
      "name": "isApprovedForAll",
      "outputs": [
        {
          "internalType": "bool",
          "name": "",
          "type": "bool"
        }
      ],
      "stateMutability": "view",
      "type": "function"
    },
    {
      "inputs": [
        {
          "internalType": "address",
          "name": "account",
          "type": "address"
        },
        {
          "internalType": "uint256",
          "name": "id",
          "type": "uint256"
        },
        {
          "internalType": "uint256",
          "name": "amount",
          "type": "uint256"
        },
        {
          "internalType": "bytes",
          "name": "data",
          "type": "bytes"
        }
      ],
      "name": "mint",
      "outputs": [],
      "stateMutability": "nonpayable",
      "type": "function"
    },
    {
      "inputs": [
        {
          "internalType": "address",
          "name": "to",
          "type": "address"
        },
        {
          "internalType": "uint256[]",
          "name": "ids",
          "type": "uint256[]"
        },
        {
          "internalType": "uint256[]",
          "name": "amounts",
          "type": "uint256[]"
        },
        {
          "internalType": "bytes",
          "name": "data",
          "type": "bytes"
        }
      ],
      "name": "mintBatch",
      "outputs": [],
      "stateMutability": "nonpayable",
      "type": "function"
    },
    {
      "inputs": [],
      "name": "pause",
      "outputs": [],
      "stateMutability": "nonpayable",
      "type": "function"
    },
    {
      "inputs": [],
      "name": "paused",
      "outputs": [
        {
          "internalType": "bool",
          "name": "",
          "type": "bool"
        }
      ],
      "stateMutability": "view",
      "type": "function"
    },
    {
      "inputs": [
        {
          "internalType": "address",
          "name": "from",
          "type": "address"
        },
        {
          "internalType": "address",
          "name": "to",
          "type": "address"
        },
        {
          "internalType": "uint256[]",
          "name": "ids",
          "type": "uint256[]"
        },
        {
          "internalType": "uint256[]",
          "name": "amounts",
          "type": "uint256[]"
        },
        {
          "internalType": "bytes",
          "name": "data",
          "type": "bytes"
        }
      ],
      "name": "safeBatchTransferFrom",
      "outputs": [],
      "stateMutability": "nonpayable",
      "type": "function"
    },
    {
      "inputs": [
        {
          "internalType": "address",
          "name": "from",
          "type": "address"
        },
        {
          "internalType": "address",
          "name": "to",
          "type": "address"
        },
        {
          "internalType": "uint256",
          "name": "id",
          "type": "uint256"
        },
        {
          "internalType": "uint256",
          "name": "amount",
          "type": "uint256"
        },
        {
          "internalType": "bytes",
          "name": "data",
          "type": "bytes"
        }
      ],
      "name": "safeTransferFrom",
      "outputs": [],
      "stateMutability": "nonpayable",
      "type": "function"
    },
    {
      "inputs": [
        {
          "internalType": "address",
          "name": "operator",
          "type": "address"
        },
        {
          "internalType": "bool",
          "name": "approved",
          "type": "bool"
        }
      ],
      "name": "setApprovalForAll",
      "outputs": [],
      "stateMutability": "nonpayable",
      "type": "function"
    },
    {
      "inputs": [
        {
          "internalType": "string",
          "name": "newuri",
          "type": "string"
        }
      ],
      "name": "setURI",
      "outputs": [],
      "stateMutability": "nonpayable",
      "type": "function"
    },
    {
      "inputs": [
        {
          "internalType": "bytes4",
          "name": "interfaceId",
          "type": "bytes4"
        }
      ],
      "name": "supportsInterface",
      "outputs": [
        {
          "internalType": "bool",
          "name": "",
          "type": "bool"
        }
      ],
      "stateMutability": "view",
      "type": "function"
    },
    {
      "inputs": [
        {
          "internalType": "uint256",
          "name": "id",
          "type": "uint256"
        }
      ],
      "name": "totalSupply",
      "outputs": [
        {
          "internalType": "uint256",
          "name": "",
          "type": "uint256"
        }
      ],
      "stateMutability": "view",
      "type": "function"
    },
    {
      "inputs": [],
      "name": "unpause",
      "outputs": [],
      "stateMutability": "nonpayable",
      "type": "function"
    },
    {
      "inputs": [
        {
          "internalType": "uint256",
          "name": "",
          "type": "uint256"
        }
      ],
      "name": "uri",
      "outputs": [
        {
          "internalType": "string",
          "name": "",
          "type": "string"
        }
      ],
      "stateMutability": "view",
      "type": "function"
    }
  ],
  "bytecode": "0x60806040523480156200001157600080fd5b5060408051808201909152601281527125a7a4a722a1aa16a7232a16a6a4a72a22a960711b6020820152620000468162000057565b506003805460ff19169055620001da565b60026200006582826200010e565b5050565b634e487b7160e01b600052604160045260246000fd5b600181811c908216806200009457607f821691505b602082108103620000b557634e487b7160e01b600052602260045260246000fd5b50919050565b601f8211156200010957600081815260208120601f850160051c81016020861015620000e45750805b601f850160051c820191505b818110156200010557828155600101620000f0565b5050505b505050565b81516001600160401b038111156200012a576200012a62000069565b62000142816200013b84546200007f565b84620000bb565b602080601f8311600181146200017a5760008415620001615750858301515b600019600386901b1c1916600185901b17855562000105565b600085815260208120601f198616915b82811015620001ab578886015182559484019460019091019084016200018a565b5085821015620001ca5787850151600019600388901b60f8161c191681555b5050505050600190811b01905550565b61210680620001ea6000396000f3fe608060405234801561001057600080fd5b50600436106101155760003560e01c80635c975abb116100a2578063a22cb46511610071578063a22cb46514610241578063bd85b03914610254578063e985e9c514610274578063f242432a146102b0578063f5298aca146102c357600080fd5b80635c975abb146102085780636b20c45414610213578063731133e9146102265780638456cb591461023957600080fd5b80631f7fdffa116100e95780631f7fdffa146101985780632eb2c2d6146101ab5780633f4ba83a146101be5780634e1273f4146101c65780634f558e79146101e657600080fd5b8062fdd58e1461011a57806301ffc9a71461014057806302fe5305146101635780630e89341c14610178575b600080fd5b61012d6101283660046114d2565b6102d6565b6040519081526020015b60405180910390f35b61015361014e366004611512565b61036f565b6040519015158152602001610137565b6101766101713660046115d5565b6103bf565b005b61018b610186366004611625565b6103cb565b6040516101379190611684565b6101766101a636600461174b565b61045f565b6101766101b93660046117e3565b610471565b6101766104bd565b6101d96101d436600461188c565b6104c7565b6040516101379190611991565b6101536101f4366004611625565b600090815260046020526040902054151590565b60035460ff16610153565b6101766102213660046119a4565b6105f0565b610176610234366004611a17565b610638565b610176610644565b61017661024f366004611a6b565b61064c565b61012d610262366004611625565b60009081526004602052604090205490565b610153610282366004611aa7565b6001600160a01b03918216600090815260016020908152604080832093909416825291909152205460ff1690565b6101766102be366004611ada565b61065b565b6101766102d1366004611b3e565b6106a0565b60006001600160a01b0383166103465760405162461bcd60e51b815260206004820152602a60248201527f455243313135353a2061646472657373207a65726f206973206e6f742061207660448201526930b634b21037bbb732b960b11b60648201526084015b60405180910390fd5b506000818152602081815260408083206001600160a01b03861684529091529020545b92915050565b60006001600160e01b03198216636cdb3d1360e11b14806103a057506001600160e01b031982166303a24d0760e21b145b8061036957506301ffc9a760e01b6001600160e01b0319831614610369565b6103c8816106e3565b50565b6060600280546103da90611b71565b80601f016020809104026020016040519081016040528092919081815260200182805461040690611b71565b80156104535780601f1061042857610100808354040283529160200191610453565b820191906000526020600020905b81548152906001019060200180831161043657829003601f168201915b50505050509050919050565b61046b848484846106ef565b50505050565b6001600160a01b03851633148061048d575061048d8533610282565b6104a95760405162461bcd60e51b815260040161033d90611bab565b6104b68585858585610849565b5050505050565b6104c56109f3565b565b6060815183511461052c5760405162461bcd60e51b815260206004820152602960248201527f455243313135353a206163636f756e747320616e6420696473206c656e677468604482015268040dad2e6dac2e8c6d60bb1b606482015260840161033d565b600083516001600160401b0381111561054757610547611536565b604051908082528060200260200182016040528015610570578160200160208202803683370190505b50905060005b84518110156105e8576105bb85828151811061059457610594611bf9565b60200260200101518583815181106105ae576105ae611bf9565b60200260200101516102d6565b8282815181106105cd576105cd611bf9565b60209081029190910101526105e181611c25565b9050610576565b509392505050565b6001600160a01b03831633148061060c575061060c8333610282565b6106285760405162461bcd60e51b815260040161033d90611bab565b610633838383610a45565b505050565b61046b84848484610be1565b6104c5610cca565b610657338383610d07565b5050565b6001600160a01b03851633148061067757506106778533610282565b6106935760405162461bcd60e51b815260040161033d90611bab565b6104b68585858585610de7565b6001600160a01b0383163314806106bc57506106bc8333610282565b6106d85760405162461bcd60e51b815260040161033d90611bab565b610633838383610f1f565b60026106578282611c84565b6001600160a01b0384166107155760405162461bcd60e51b815260040161033d90611d43565b81518351146107365760405162461bcd60e51b815260040161033d90611d84565b3361074681600087878787611037565b60005b84518110156107e15783818151811061076457610764611bf9565b602002602001015160008087848151811061078157610781611bf9565b602002602001015181526020019081526020016000206000886001600160a01b03166001600160a01b0316815260200190815260200160002060008282546107c99190611dcc565b909155508190506107d981611c25565b915050610749565b50846001600160a01b031660006001600160a01b0316826001600160a01b03167f4a39dc06d4c0dbc64b70af90fd698a233a518aa5d07e595d983b8c0526c8f7fb8787604051610832929190611ddf565b60405180910390a46104b68160008787878761104d565b815183511461086a5760405162461bcd60e51b815260040161033d90611d84565b6001600160a01b0384166108905760405162461bcd60e51b815260040161033d90611e0d565b3361089f818787878787611037565b60005b84518110156109855760008582815181106108bf576108bf611bf9565b6020026020010151905060008583815181106108dd576108dd611bf9565b602090810291909101810151600084815280835260408082206001600160a01b038e16835290935291909120549091508181101561092d5760405162461bcd60e51b815260040161033d90611e52565b6000838152602081815260408083206001600160a01b038e8116855292528083208585039055908b1682528120805484929061096a908490611dcc565b925050819055505050508061097e90611c25565b90506108a2565b50846001600160a01b0316866001600160a01b0316826001600160a01b03167f4a39dc06d4c0dbc64b70af90fd698a233a518aa5d07e595d983b8c0526c8f7fb87876040516109d5929190611ddf565b60405180910390a46109eb81878787878761104d565b505050505050565b6109fb6111a8565b6003805460ff191690557f5db9ee0a495bf2e6ff9c91a7834c1ba4fdd244a5e8aa4e537bd38aeae4b073aa335b6040516001600160a01b03909116815260200160405180910390a1565b6001600160a01b038316610a6b5760405162461bcd60e51b815260040161033d90611e9c565b8051825114610a8c5760405162461bcd60e51b815260040161033d90611d84565b6000339050610aaf81856000868660405180602001604052806000815250611037565b60005b8351811015610b74576000848281518110610acf57610acf611bf9565b602002602001015190506000848381518110610aed57610aed611bf9565b602090810291909101810151600084815280835260408082206001600160a01b038c168352909352919091205490915081811015610b3d5760405162461bcd60e51b815260040161033d90611edf565b6000928352602083815260408085206001600160a01b038b1686529091529092209103905580610b6c81611c25565b915050610ab2565b5060006001600160a01b0316846001600160a01b0316826001600160a01b03167f4a39dc06d4c0dbc64b70af90fd698a233a518aa5d07e595d983b8c0526c8f7fb8686604051610bc5929190611ddf565b60405180910390a460408051602081019091526000905261046b565b6001600160a01b038416610c075760405162461bcd60e51b815260040161033d90611d43565b336000610c13856111f1565b90506000610c20856111f1565b9050610c3183600089858589611037565b6000868152602081815260408083206001600160a01b038b16845290915281208054879290610c61908490611dcc565b909155505060408051878152602081018790526001600160a01b03808a1692600092918716917fc3d58168c5ae7397731d063d5bbf3d657854427343f4c083240f7aacaa2d0f62910160405180910390a4610cc18360008989898961123c565b50505050505050565b610cd26112f7565b6003805460ff191660011790557f62e78cea01bee320cd4e420270b5ea74000d11b0c9f74754ebdbfc544b05a258610a283390565b816001600160a01b0316836001600160a01b031603610d7a5760405162461bcd60e51b815260206004820152602960248201527f455243313135353a2073657474696e6720617070726f76616c20737461747573604482015268103337b91039b2b63360b91b606482015260840161033d565b6001600160a01b03838116600081815260016020908152604080832094871680845294825291829020805460ff191686151590811790915591519182527f17307eab39ab6107e8899845ad3d59bd9653f200f220920489ca2b5937696c31910160405180910390a3505050565b6001600160a01b038416610e0d5760405162461bcd60e51b815260040161033d90611e0d565b336000610e19856111f1565b90506000610e26856111f1565b9050610e36838989858589611037565b6000868152602081815260408083206001600160a01b038c16845290915290205485811015610e775760405162461bcd60e51b815260040161033d90611e52565b6000878152602081815260408083206001600160a01b038d8116855292528083208985039055908a16825281208054889290610eb4908490611dcc565b909155505060408051888152602081018890526001600160a01b03808b16928c821692918816917fc3d58168c5ae7397731d063d5bbf3d657854427343f4c083240f7aacaa2d0f62910160405180910390a4610f14848a8a8a8a8a61123c565b505050505050505050565b6001600160a01b038316610f455760405162461bcd60e51b815260040161033d90611e9c565b336000610f51846111f1565b90506000610f5e846111f1565b9050610f7e83876000858560405180602001604052806000815250611037565b6000858152602081815260408083206001600160a01b038a16845290915290205484811015610fbf5760405162461bcd60e51b815260040161033d90611edf565b6000868152602081815260408083206001600160a01b038b81168086529184528285208a8703905582518b81529384018a90529092908816917fc3d58168c5ae7397731d063d5bbf3d657854427343f4c083240f7aacaa2d0f62910160405180910390a4604080516020810190915260009052610cc1565b61103f6112f7565b6109eb86868686868661133d565b6001600160a01b0384163b156109eb5760405163bc197c8160e01b81526001600160a01b0385169063bc197c81906110919089908990889088908890600401611f23565b6020604051808303816000875af19250505080156110cc575060408051601f3d908101601f191682019092526110c991810190611f81565b60015b611178576110d8611f9e565b806308c379a00361111157506110ec611fba565b806110f75750611113565b8060405162461bcd60e51b815260040161033d9190611684565b505b60405162461bcd60e51b815260206004820152603460248201527f455243313135353a207472616e7366657220746f206e6f6e2d455243313135356044820152732932b1b2b4bb32b91034b6b83632b6b2b73a32b960611b606482015260840161033d565b6001600160e01b0319811663bc197c8160e01b14610cc15760405162461bcd60e51b815260040161033d90612043565b60035460ff166104c55760405162461bcd60e51b815260206004820152601460248201527314185d5cd8589b194e881b9bdd081c185d5cd95960621b604482015260640161033d565b6040805160018082528183019092526060916000919060208083019080368337019050509050828160008151811061122b5761122b611bf9565b602090810291909101015292915050565b6001600160a01b0384163b156109eb5760405163f23a6e6160e01b81526001600160a01b0385169063f23a6e6190611280908990899088908890889060040161208b565b6020604051808303816000875af19250505080156112bb575060408051601f3d908101601f191682019092526112b891810190611f81565b60015b6112c7576110d8611f9e565b6001600160e01b0319811663f23a6e6160e01b14610cc15760405162461bcd60e51b815260040161033d90612043565b60035460ff16156104c55760405162461bcd60e51b815260206004820152601060248201526f14185d5cd8589b194e881c185d5cd95960821b604482015260640161033d565b6001600160a01b0385166113c45760005b83518110156113c25782818151811061136957611369611bf9565b60200260200101516004600086848151811061138757611387611bf9565b6020026020010151815260200190815260200160002060008282546113ac9190611dcc565b909155506113bb905081611c25565b905061134e565b505b6001600160a01b0384166109eb5760005b8351811015610cc15760008482815181106113f2576113f2611bf9565b60200260200101519050600084838151811061141057611410611bf9565b60200260200101519050600060046000848152602001908152602001600020549050818110156114935760405162461bcd60e51b815260206004820152602860248201527f455243313135353a206275726e20616d6f756e74206578636565647320746f74604482015267616c537570706c7960c01b606482015260840161033d565b600092835260046020526040909220910390556114af81611c25565b90506113d5565b80356001600160a01b03811681146114cd57600080fd5b919050565b600080604083850312156114e557600080fd5b6114ee836114b6565b946020939093013593505050565b6001600160e01b0319811681146103c857600080fd5b60006020828403121561152457600080fd5b813561152f816114fc565b9392505050565b634e487b7160e01b600052604160045260246000fd5b601f8201601f191681016001600160401b038111828210171561157157611571611536565b6040525050565b60006001600160401b0383111561159157611591611536565b6040516115a8601f8501601f19166020018261154c565b8091508381528484840111156115bd57600080fd5b83836020830137600060208583010152509392505050565b6000602082840312156115e757600080fd5b81356001600160401b038111156115fd57600080fd5b8201601f8101841361160e57600080fd5b61161d84823560208401611578565b949350505050565b60006020828403121561163757600080fd5b5035919050565b6000815180845260005b8181101561166457602081850181015186830182015201611648565b506000602082860101526020601f19601f83011685010191505092915050565b60208152600061152f602083018461163e565b60006001600160401b038211156116b0576116b0611536565b5060051b60200190565b600082601f8301126116cb57600080fd5b813560206116d882611697565b6040516116e5828261154c565b83815260059390931b850182019282810191508684111561170557600080fd5b8286015b848110156117205780358352918301918301611709565b509695505050505050565b600082601f83011261173c57600080fd5b61152f83833560208501611578565b6000806000806080858703121561176157600080fd5b61176a856114b6565b935060208501356001600160401b038082111561178657600080fd5b611792888389016116ba565b945060408701359150808211156117a857600080fd5b6117b4888389016116ba565b935060608701359150808211156117ca57600080fd5b506117d78782880161172b565b91505092959194509250565b600080600080600060a086880312156117fb57600080fd5b611804866114b6565b9450611812602087016114b6565b935060408601356001600160401b038082111561182e57600080fd5b61183a89838a016116ba565b9450606088013591508082111561185057600080fd5b61185c89838a016116ba565b9350608088013591508082111561187257600080fd5b5061187f8882890161172b565b9150509295509295909350565b6000806040838503121561189f57600080fd5b82356001600160401b03808211156118b657600080fd5b818501915085601f8301126118ca57600080fd5b813560206118d782611697565b6040516118e4828261154c565b83815260059390931b850182019282810191508984111561190457600080fd5b948201945b838610156119295761191a866114b6565b82529482019490820190611909565b9650508601359250508082111561193f57600080fd5b5061194c858286016116ba565b9150509250929050565b600081518084526020808501945080840160005b838110156119865781518752958201959082019060010161196a565b509495945050505050565b60208152600061152f6020830184611956565b6000806000606084860312156119b957600080fd5b6119c2846114b6565b925060208401356001600160401b03808211156119de57600080fd5b6119ea878388016116ba565b93506040860135915080821115611a0057600080fd5b50611a0d868287016116ba565b9150509250925092565b60008060008060808587031215611a2d57600080fd5b611a36856114b6565b9350602085013592506040850135915060608501356001600160401b03811115611a5f57600080fd5b6117d78782880161172b565b60008060408385031215611a7e57600080fd5b611a87836114b6565b915060208301358015158114611a9c57600080fd5b809150509250929050565b60008060408385031215611aba57600080fd5b611ac3836114b6565b9150611ad1602084016114b6565b90509250929050565b600080600080600060a08688031215611af257600080fd5b611afb866114b6565b9450611b09602087016114b6565b9350604086013592506060860135915060808601356001600160401b03811115611b3257600080fd5b61187f8882890161172b565b600080600060608486031215611b5357600080fd5b611b5c846114b6565b95602085013595506040909401359392505050565b600181811c90821680611b8557607f821691505b602082108103611ba557634e487b7160e01b600052602260045260246000fd5b50919050565b6020808252602e908201527f455243313135353a2063616c6c6572206973206e6f7420746f6b656e206f776e60408201526d195c881bdc88185c1c1c9bdd995960921b606082015260800190565b634e487b7160e01b600052603260045260246000fd5b634e487b7160e01b600052601160045260246000fd5b600060018201611c3757611c37611c0f565b5060010190565b601f82111561063357600081815260208120601f850160051c81016020861015611c655750805b601f850160051c820191505b818110156109eb57828155600101611c71565b81516001600160401b03811115611c9d57611c9d611536565b611cb181611cab8454611b71565b84611c3e565b602080601f831160018114611ce65760008415611cce5750858301515b600019600386901b1c1916600185901b1785556109eb565b600085815260208120601f198616915b82811015611d1557888601518255948401946001909101908401611cf6565b5085821015611d335787850151600019600388901b60f8161c191681555b5050505050600190811b01905550565b60208082526021908201527f455243313135353a206d696e7420746f20746865207a65726f206164647265736040820152607360f81b606082015260800190565b60208082526028908201527f455243313135353a2069647320616e6420616d6f756e7473206c656e677468206040820152670dad2e6dac2e8c6d60c31b606082015260800190565b8082018082111561036957610369611c0f565b604081526000611df26040830185611956565b8281036020840152611e048185611956565b95945050505050565b60208082526025908201527f455243313135353a207472616e7366657220746f20746865207a65726f206164604082015264647265737360d81b606082015260800190565b6020808252602a908201527f455243313135353a20696e73756666696369656e742062616c616e636520666f60408201526939103a3930b739b332b960b11b606082015260800190565b60208082526023908201527f455243313135353a206275726e2066726f6d20746865207a65726f206164647260408201526265737360e81b606082015260800190565b60208082526024908201527f455243313135353a206275726e20616d6f756e7420657863656564732062616c604082015263616e636560e01b606082015260800190565b6001600160a01b0386811682528516602082015260a060408201819052600090611f4f90830186611956565b8281036060840152611f618186611956565b90508281036080840152611f75818561163e565b98975050505050505050565b600060208284031215611f9357600080fd5b815161152f816114fc565b600060033d1115611fb75760046000803e5060005160e01c5b90565b600060443d1015611fc85790565b6040516003193d81016004833e81513d6001600160401b038160248401118184111715611ff757505050505090565b828501915081518181111561200f5750505050505090565b843d87010160208285010111156120295750505050505090565b6120386020828601018761154c565b509095945050505050565b60208082526028908201527f455243313135353a204552433131353552656365697665722072656a656374656040820152676420746f6b656e7360c01b606082015260800190565b6001600160a01b03868116825285166020820152604081018490526060810183905260a0608082018190526000906120c59083018461163e565b97965050505050505056fea2646970667358221220b97b78bd9bb7901fc2ce976d9f9b58c798c83e92114df72e715b101fcd7bb77e64736f6c63430008130033",
  "linkReferences": {},
  "deployedLinkReferences": {}
}