{
  "_format": "hh-sol-artifact-1",
  "contractName": "MultiToken",
  "sourceName": "contracts/MultiToken.sol",
  "abi": [
    {
      "inputs": [],
      "stateMutability": "nonpayable",
      "type": "constructor"
    },
    {
      "anonymous": false,
      "inputs": [
        {
          "indexed": true,
          "internalType": "address",
          "name": "account",
          "type": "address"
        },
        {
          "indexed": true,
          "internalType": "address",
          "name": "operator",
          "type": "address"
        },
        {
          "indexed": false,
          "internalType": "bool",
          "name": "approved",
          "type": "bool"
        }
      ],
      "name": "ApprovalForAll",
      "type": "event"
    },
    {
      "anonymous": false,
      "inputs": [
        {
          "indexed": false,
          "internalType": "address",
          "name": "account",
          "type": "address"
        }
      ],
      "name": "Paused",
      "type": "event"
    },
    {
      "anonymous": false,
      "inputs": [
        {
          "indexed": true,
          "internalType": "bytes32",
          "name": "role",
          "type": "bytes32"
        },
        {
          "indexed": true,
          "internalType": "bytes32",
          "name": "previousAdminRole",
          "type": "bytes32"
        },
        {
          "indexed": true,
          "internalType": "bytes32",
          "name": "newAdminRole",
          "type": "bytes32"
        }
      ],
      "name": "RoleAdminChanged",
      "type": "event"
    },
    {
      "anonymous": false,
      "inputs": [
        {
          "indexed": true,
          "internalType": "bytes32",
          "name": "role",
          "type": "bytes32"
        },
        {
          "indexed": true,
          "internalType": "address",
          "name": "account",
          "type": "address"
        },
        {
          "indexed": true,
          "internalType": "address",
          "name": "sender",
          "type": "address"
        }
      ],
      "name": "RoleGranted",
      "type": "event"
    },
    {
      "anonymous": false,
      "inputs": [
        {
          "indexed": true,
          "internalType": "bytes32",
          "name": "role",
          "type": "bytes32"
        },
        {
          "indexed": true,
          "internalType": "address",
          "name": "account",
          "type": "address"
        },
        {
          "indexed": true,
          "internalType": "address",
          "name": "sender",
          "type": "address"
        }
      ],
      "name": "RoleRevoked",
      "type": "event"
    },
    {
      "anonymous": false,
      "inputs": [
        {
          "indexed": true,
          "internalType": "address",
          "name": "operator",
          "type": "address"
        },
        {
          "indexed": true,
          "internalType": "address",
          "name": "from",
          "type": "address"
        },
        {
          "indexed": true,
          "internalType": "address",
          "name": "to",
          "type": "address"
        },
        {
          "indexed": false,
          "internalType": "uint256[]",
          "name": "ids",
          "type": "uint256[]"
        },
        {
          "indexed": false,
          "internalType": "uint256[]",
          "name": "values",
          "type": "uint256[]"
        }
      ],
      "name": "TransferBatch",
      "type": "event"
    },
    {
      "anonymous": false,
      "inputs": [
        {
          "indexed": true,
          "internalType": "address",
          "name": "operator",
          "type": "address"
        },
        {
          "indexed": true,
          "internalType": "address",
          "name": "from",
          "type": "address"
        },
        {
          "indexed": true,
          "internalType": "address",
          "name": "to",
          "type": "address"
        },
        {
          "indexed": false,
          "internalType": "uint256",
          "name": "id",
          "type": "uint256"
        },
        {
          "indexed": false,
          "internalType": "uint256",
          "name": "value",
          "type": "uint256"
        }
      ],
      "name": "TransferSingle",
      "type": "event"
    },
    {
      "anonymous": false,
      "inputs": [
        {
          "indexed": false,
          "internalType": "string",
          "name": "value",
          "type": "string"
        },
        {
          "indexed": true,
          "internalType": "uint256",
          "name": "id",
          "type": "uint256"
        }
      ],
      "name": "URI",
      "type": "event"
    },
    {
      "anonymous": false,
      "inputs": [
        {
          "indexed": false,
          "internalType": "address",
          "name": "account",
          "type": "address"
        }
      ],
      "name": "Unpaused",
      "type": "event"
    },
    {
      "inputs": [],
      "name": "DEFAULT_ADMIN_ROLE",
      "outputs": [
        {
          "internalType": "bytes32",
          "name": "",
          "type": "bytes32"
        }
      ],
      "stateMutability": "view",
      "type": "function"
    },
    {
      "inputs": [],
      "name": "MINTER_ROLE",
      "outputs": [
        {
          "internalType": "bytes32",
          "name": "",
          "type": "bytes32"
        }
      ],
      "stateMutability": "view",
      "type": "function"
    },
    {
      "inputs": [],
      "name": "PAUSER_ROLE",
      "outputs": [
        {
          "internalType": "bytes32",
          "name": "",
          "type": "bytes32"
        }
      ],
      "stateMutability": "view",
      "type": "function"
    },
    {
      "inputs": [],
      "name": "URI_SETTER_ROLE",
      "outputs": [
        {
          "internalType": "bytes32",
          "name": "",
          "type": "bytes32"
        }
      ],
      "stateMutability": "view",
      "type": "function"
    },
    {
      "inputs": [
        {
          "internalType": "address",
          "name": "account",
          "type": "address"
        },
        {
          "internalType": "uint256",
          "name": "id",
          "type": "uint256"
        }
      ],
      "name": "balanceOf",
      "outputs": [
        {
          "internalType": "uint256",
          "name": "",
          "type": "uint256"
        }
      ],
      "stateMutability": "view",
      "type": "function"
    },
    {
      "inputs": [
        {
          "internalType": "address[]",
          "name": "accounts",
          "type": "address[]"
        },
        {
          "internalType": "uint256[]",
          "name": "ids",
          "type": "uint256[]"
        }
      ],
      "name": "balanceOfBatch",
      "outputs": [
        {
          "internalType": "uint256[]",
          "name": "",
          "type": "uint256[]"
        }
      ],
      "stateMutability": "view",
      "type": "function"
    },
    {
      "inputs": [
        {
          "internalType": "address",
          "name": "account",
          "type": "address"
        },
        {
          "internalType": "uint256",
          "name": "id",
          "type": "uint256"
        },
        {
          "internalType": "uint256",
          "name": "value",
          "type": "uint256"
        }
      ],
      "name": "burn",
      "outputs": [],
      "stateMutability": "nonpayable",
      "type": "function"
    },
    {
      "inputs": [
        {
          "internalType": "address",
          "name": "account",
          "type": "address"
        },
        {
          "internalType": "uint256[]",
          "name": "ids",
          "type": "uint256[]"
        },
        {
          "internalType": "uint256[]",
          "name": "values",
          "type": "uint256[]"
        }
      ],
      "name": "burnBatch",
      "outputs": [],
      "stateMutability": "nonpayable",
      "type": "function"
    },
    {
      "inputs": [
        {
          "internalType": "uint256",
          "name": "id",
          "type": "uint256"
        }
      ],
      "name": "exists",
      "outputs": [
        {
          "internalType": "bool",
          "name": "",
          "type": "bool"
        }
      ],
      "stateMutability": "view",
      "type": "function"
    },
    {
      "inputs": [
        {
          "internalType": "bytes32",
          "name": "role",
          "type": "bytes32"
        }
      ],
      "name": "getRoleAdmin",
      "outputs": [
        {
          "internalType": "bytes32",
          "name": "",
          "type": "bytes32"
        }
      ],
      "stateMutability": "view",
      "type": "function"
    },
    {
      "inputs": [
        {
          "internalType": "bytes32",
          "name": "role",
          "type": "bytes32"
        },
        {
          "internalType": "address",
          "name": "account",
          "type": "address"
        }
      ],
      "name": "grantRole",
      "outputs": [],
      "stateMutability": "nonpayable",
      "type": "function"
    },
    {
      "inputs": [
        {
          "internalType": "bytes32",
          "name": "role",
          "type": "bytes32"
        },
        {
          "internalType": "address",
          "name": "account",
          "type": "address"
        }
      ],
      "name": "hasRole",
      "outputs": [
        {
          "internalType": "bool",
          "name": "",
          "type": "bool"
        }
      ],
      "stateMutability": "view",
      "type": "function"
    },
    {
      "inputs": [
        {
          "internalType": "address",
          "name": "account",
          "type": "address"
        },
        {
          "internalType": "address",
          "name": "operator",
          "type": "address"
        }
      ],
      "name": "isApprovedForAll",
      "outputs": [
        {
          "internalType": "bool",
          "name": "",
          "type": "bool"
        }
      ],
      "stateMutability": "view",
      "type": "function"
    },
    {
      "inputs": [
        {
          "internalType": "address",
          "name": "account",
          "type": "address"
        },
        {
          "internalType": "uint256",
          "name": "id",
          "type": "uint256"
        },
        {
          "internalType": "uint256",
          "name": "amount",
          "type": "uint256"
        },
        {
          "internalType": "bytes",
          "name": "data",
          "type": "bytes"
        }
      ],
      "name": "mint",
      "outputs": [],
      "stateMutability": "nonpayable",
      "type": "function"
    },
    {
      "inputs": [
        {
          "internalType": "address",
          "name": "to",
          "type": "address"
        },
        {
          "internalType": "uint256[]",
          "name": "ids",
          "type": "uint256[]"
        },
        {
          "internalType": "uint256[]",
          "name": "amounts",
          "type": "uint256[]"
        },
        {
          "internalType": "bytes",
          "name": "data",
          "type": "bytes"
        }
      ],
      "name": "mintBatch",
      "outputs": [],
      "stateMutability": "nonpayable",
      "type": "function"
    },
    {
      "inputs": [],
      "name": "pause",
      "outputs": [],
      "stateMutability": "nonpayable",
      "type": "function"
    },
    {
      "inputs": [],
      "name": "paused",
      "outputs": [
        {
          "internalType": "bool",
          "name": "",
          "type": "bool"
        }
      ],
      "stateMutability": "view",
      "type": "function"
    },
    {
      "inputs": [
        {
          "internalType": "bytes32",
          "name": "role",
          "type": "bytes32"
        },
        {
          "internalType": "address",
          "name": "account",
          "type": "address"
        }
      ],
      "name": "renounceRole",
      "outputs": [],
      "stateMutability": "nonpayable",
      "type": "function"
    },
    {
      "inputs": [
        {
          "internalType": "bytes32",
          "name": "role",
          "type": "bytes32"
        },
        {
          "internalType": "address",
          "name": "account",
          "type": "address"
        }
      ],
      "name": "revokeRole",
      "outputs": [],
      "stateMutability": "nonpayable",
      "type": "function"
    },
    {
      "inputs": [
        {
          "internalType": "address",
          "name": "from",
          "type": "address"
        },
        {
          "internalType": "address",
          "name": "to",
          "type": "address"
        },
        {
          "internalType": "uint256[]",
          "name": "ids",
          "type": "uint256[]"
        },
        {
          "internalType": "uint256[]",
          "name": "amounts",
          "type": "uint256[]"
        },
        {
          "internalType": "bytes",
          "name": "data",
          "type": "bytes"
        }
      ],
      "name": "safeBatchTransferFrom",
      "outputs": [],
      "stateMutability": "nonpayable",
      "type": "function"
    },
    {
      "inputs": [
        {
          "internalType": "address",
          "name": "from",
          "type": "address"
        },
        {
          "internalType": "address",
          "name": "to",
          "type": "address"
        },
        {
          "internalType": "uint256",
          "name": "id",
          "type": "uint256"
        },
        {
          "internalType": "uint256",
          "name": "amount",
          "type": "uint256"
        },
        {
          "internalType": "bytes",
          "name": "data",
          "type": "bytes"
        }
      ],
      "name": "safeTransferFrom",
      "outputs": [],
      "stateMutability": "nonpayable",
      "type": "function"
    },
    {
      "inputs": [
        {
          "internalType": "address",
          "name": "operator",
          "type": "address"
        },
        {
          "internalType": "bool",
          "name": "approved",
          "type": "bool"
        }
      ],
      "name": "setApprovalForAll",
      "outputs": [],
      "stateMutability": "nonpayable",
      "type": "function"
    },
    {
      "inputs": [
        {
          "internalType": "string",
          "name": "newuri",
          "type": "string"
        }
      ],
      "name": "setURI",
      "outputs": [],
      "stateMutability": "nonpayable",
      "type": "function"
    },
    {
      "inputs": [
        {
          "internalType": "bytes4",
          "name": "interfaceId",
          "type": "bytes4"
        }
      ],
      "name": "supportsInterface",
      "outputs": [
        {
          "internalType": "bool",
          "name": "",
          "type": "bool"
        }
      ],
      "stateMutability": "view",
      "type": "function"
    },
    {
      "inputs": [
        {
          "internalType": "uint256",
          "name": "id",
          "type": "uint256"
        }
      ],
      "name": "totalSupply",
      "outputs": [
        {
          "internalType": "uint256",
          "name": "",
          "type": "uint256"
        }
      ],
      "stateMutability": "view",
      "type": "function"
    },
    {
      "inputs": [],
      "name": "unpause",
      "outputs": [],
      "stateMutability": "nonpayable",
      "type": "function"
    },
    {
      "inputs": [
        {
          "internalType": "uint256",
          "name": "",
          "type": "uint256"
        }
      ],
      "name": "uri",
      "outputs": [
        {
          "internalType": "string",
          "name": "",
          "type": "string"
        }
      ],
      "stateMutability": "view",
      "type": "function"
    }
  ],
  "bytecode": "0x60806040523480156200001157600080fd5b506040805160208101909152600081526200002c81620000ce565b506004805460ff1916905562000044600033620000e0565b620000707f7804d923f43a17d325d77e781528e0793b2edd9890ab45fc64efd7b4b427744c33620000e0565b6200009c7f65d7a28e3265b37a6474929f336521b332c1681b933f6cb9f3376673440d862a33620000e0565b620000c87f9f2df0fed2c77648de5860a4cc508cd0818c85b8b8a1ab4ceeef8d981c8956a633620000e0565b620002f5565b6002620000dc828262000229565b5050565b60008281526003602090815260408083206001600160a01b038516845290915290205460ff16620000dc5760008281526003602090815260408083206001600160a01b03851684529091529020805460ff19166001179055620001403390565b6001600160a01b0316816001600160a01b0316837f2f8788117e7eff1d82e926ec794901d17c78024a50270940304540a733656f0d60405160405180910390a45050565b634e487b7160e01b600052604160045260246000fd5b600181811c90821680620001af57607f821691505b602082108103620001d057634e487b7160e01b600052602260045260246000fd5b50919050565b601f8211156200022457600081815260208120601f850160051c81016020861015620001ff5750805b601f850160051c820191505b8181101562000220578281556001016200020b565b5050505b505050565b81516001600160401b0381111562000245576200024562000184565b6200025d816200025684546200019a565b84620001d6565b602080601f8311600181146200029557600084156200027c5750858301515b600019600386901b1c1916600185901b17855562000220565b600085815260208120601f198616915b82811015620002c657888601518255948401946001909101908401620002a5565b5085821015620002e55787850151600019600388901b60f8161c191681555b5050505050600190811b01905550565b61283e80620003056000396000f3fe608060405234801561001057600080fd5b50600436106101a85760003560e01c80636b20c454116100f9578063bd85b03911610097578063e63ab1e911610071578063e63ab1e9146103cc578063e985e9c5146103f3578063f242432a1461042f578063f5298aca1461044257600080fd5b8063bd85b03914610372578063d539139314610392578063d547741f146103b957600080fd5b80638456cb59116100d35780638456cb591461033c57806391d1485414610344578063a217fddf14610357578063a22cb4651461035f57600080fd5b80636b20c454146102ef578063731133e9146103025780637f3457101461031557600080fd5b80632eb2c2d6116101665780633f4ba83a116101405780633f4ba83a1461029a5780634e1273f4146102a25780634f558e79146102c25780635c975abb146102e457600080fd5b80632eb2c2d6146102615780632f2ff15d1461027457806336568abe1461028757600080fd5b8062fdd58e146101ad57806301ffc9a7146101d357806302fe5305146101f65780630e89341c1461020b5780631f7fdffa1461022b578063248a9ca31461023e575b600080fd5b6101c06101bb366004611b41565b610455565b6040519081526020015b60405180910390f35b6101e66101e1366004611b81565b6104ee565b60405190151581526020016101ca565b610209610204366004611c3d565b6104f9565b005b61021e610219366004611c8d565b610530565b6040516101ca9190611cf6565b610209610239366004611dbd565b6105c4565b6101c061024c366004611c8d565b60009081526003602052604090206001015490565b61020961026f366004611e55565b610601565b610209610282366004611efe565b610646565b610209610295366004611efe565b610670565b6102096106ea565b6102b56102b0366004611f2a565b61071f565b6040516101ca919061202f565b6101e66102d0366004611c8d565b600090815260056020526040902054151590565b60045460ff166101e6565b6102096102fd366004612042565b610848565b6102096103103660046120b5565b61088b565b6101c07f7804d923f43a17d325d77e781528e0793b2edd9890ab45fc64efd7b4b427744c81565b6102096108c1565b6101e6610352366004611efe565b6108f3565b6101c0600081565b61020961036d366004612109565b61091e565b6101c0610380366004611c8d565b60009081526005602052604090205490565b6101c07f9f2df0fed2c77648de5860a4cc508cd0818c85b8b8a1ab4ceeef8d981c8956a681565b6102096103c7366004611efe565b610929565b6101c07f65d7a28e3265b37a6474929f336521b332c1681b933f6cb9f3376673440d862a81565b6101e6610401366004612145565b6001600160a01b03918216600090815260016020908152604080832093909416825291909152205460ff1690565b61020961043d36600461216f565b61094e565b6102096104503660046121d3565b610993565b60006001600160a01b0383166104c55760405162461bcd60e51b815260206004820152602a60248201527f455243313135353a2061646472657373207a65726f206973206e6f742061207660448201526930b634b21037bbb732b960b11b60648201526084015b60405180910390fd5b506000818152602081815260408083206001600160a01b03861684529091529020545b92915050565b60006104e8826109d6565b7f7804d923f43a17d325d77e781528e0793b2edd9890ab45fc64efd7b4b427744c610523816109fb565b61052c82610a05565b5050565b60606002805461053f90612206565b80601f016020809104026020016040519081016040528092919081815260200182805461056b90612206565b80156105b85780601f1061058d576101008083540402835291602001916105b8565b820191906000526020600020905b81548152906001019060200180831161059b57829003601f168201915b50505050509050919050565b7f9f2df0fed2c77648de5860a4cc508cd0818c85b8b8a1ab4ceeef8d981c8956a66105ee816109fb565b6105fa85858585610a11565b5050505050565b6001600160a01b03851633148061061d575061061d8533610401565b6106395760405162461bcd60e51b81526004016104bc90612240565b6105fa8585858585610b6b565b600082815260036020526040902060010154610661816109fb565b61066b8383610d15565b505050565b6001600160a01b03811633146106e05760405162461bcd60e51b815260206004820152602f60248201527f416363657373436f6e74726f6c3a2063616e206f6e6c792072656e6f756e636560448201526e103937b632b9903337b91039b2b63360891b60648201526084016104bc565b61052c8282610d9b565b7f65d7a28e3265b37a6474929f336521b332c1681b933f6cb9f3376673440d862a610714816109fb565b61071c610e02565b50565b606081518351146107845760405162461bcd60e51b815260206004820152602960248201527f455243313135353a206163636f756e747320616e6420696473206c656e677468604482015268040dad2e6dac2e8c6d60bb1b60648201526084016104bc565b600083516001600160401b0381111561079f5761079f611b9e565b6040519080825280602002602001820160405280156107c8578160200160208202803683370190505b50905060005b8451811015610840576108138582815181106107ec576107ec61228e565b60200260200101518583815181106108065761080661228e565b6020026020010151610455565b8282815181106108255761082561228e565b6020908102919091010152610839816122ba565b90506107ce565b509392505050565b6001600160a01b03831633148061086457506108648333610401565b6108805760405162461bcd60e51b81526004016104bc90612240565b61066b838383610e54565b7f9f2df0fed2c77648de5860a4cc508cd0818c85b8b8a1ab4ceeef8d981c8956a66108b5816109fb565b6105fa85858585610ff1565b7f65d7a28e3265b37a6474929f336521b332c1681b933f6cb9f3376673440d862a6108eb816109fb565b61071c6110da565b60009182526003602090815260408084206001600160a01b0393909316845291905290205460ff1690565b61052c338383611117565b600082815260036020526040902060010154610944816109fb565b61066b8383610d9b565b6001600160a01b03851633148061096a575061096a8533610401565b6109865760405162461bcd60e51b81526004016104bc90612240565b6105fa85858585856111f7565b6001600160a01b0383163314806109af57506109af8333610401565b6109cb5760405162461bcd60e51b81526004016104bc90612240565b61066b83838361132f565b60006001600160e01b03198216637965db0b60e01b14806104e857506104e882611447565b61071c8133611497565b600261052c8282612319565b6001600160a01b038416610a375760405162461bcd60e51b81526004016104bc906123d8565b8151835114610a585760405162461bcd60e51b81526004016104bc90612419565b33610a68816000878787876114f0565b60005b8451811015610b0357838181518110610a8657610a8661228e565b6020026020010151600080878481518110610aa357610aa361228e565b602002602001015181526020019081526020016000206000886001600160a01b03166001600160a01b031681526020019081526020016000206000828254610aeb9190612461565b90915550819050610afb816122ba565b915050610a6b565b50846001600160a01b031660006001600160a01b0316826001600160a01b03167f4a39dc06d4c0dbc64b70af90fd698a233a518aa5d07e595d983b8c0526c8f7fb8787604051610b54929190612474565b60405180910390a46105fa81600087878787611506565b8151835114610b8c5760405162461bcd60e51b81526004016104bc90612419565b6001600160a01b038416610bb25760405162461bcd60e51b81526004016104bc906124a2565b33610bc18187878787876114f0565b60005b8451811015610ca7576000858281518110610be157610be161228e565b602002602001015190506000858381518110610bff57610bff61228e565b602090810291909101810151600084815280835260408082206001600160a01b038e168352909352919091205490915081811015610c4f5760405162461bcd60e51b81526004016104bc906124e7565b6000838152602081815260408083206001600160a01b038e8116855292528083208585039055908b16825281208054849290610c8c908490612461565b9250508190555050505080610ca0906122ba565b9050610bc4565b50846001600160a01b0316866001600160a01b0316826001600160a01b03167f4a39dc06d4c0dbc64b70af90fd698a233a518aa5d07e595d983b8c0526c8f7fb8787604051610cf7929190612474565b60405180910390a4610d0d818787878787611506565b505050505050565b610d1f82826108f3565b61052c5760008281526003602090815260408083206001600160a01b03851684529091529020805460ff19166001179055610d573390565b6001600160a01b0316816001600160a01b0316837f2f8788117e7eff1d82e926ec794901d17c78024a50270940304540a733656f0d60405160405180910390a45050565b610da582826108f3565b1561052c5760008281526003602090815260408083206001600160a01b0385168085529252808320805460ff1916905551339285917ff6391f5c32d9c69d2a47ea670b442974b53935d1edc7fd64eb21e047a839171b9190a45050565b610e0a611661565b6004805460ff191690557f5db9ee0a495bf2e6ff9c91a7834c1ba4fdd244a5e8aa4e537bd38aeae4b073aa335b6040516001600160a01b03909116815260200160405180910390a1565b6001600160a01b038316610e7a5760405162461bcd60e51b81526004016104bc90612531565b8051825114610e9b5760405162461bcd60e51b81526004016104bc90612419565b6000339050610ebe818560008686604051806020016040528060008152506114f0565b60005b8351811015610f83576000848281518110610ede57610ede61228e565b602002602001015190506000848381518110610efc57610efc61228e565b602090810291909101810151600084815280835260408082206001600160a01b038c168352909352919091205490915081811015610f4c5760405162461bcd60e51b81526004016104bc90612574565b6000928352602083815260408085206001600160a01b038b1686529091529092209103905580610f7b816122ba565b915050610ec1565b5060006001600160a01b0316846001600160a01b0316826001600160a01b03167f4a39dc06d4c0dbc64b70af90fd698a233a518aa5d07e595d983b8c0526c8f7fb8686604051610fd4929190612474565b60405180910390a460408051602081019091526000905250505050565b6001600160a01b0384166110175760405162461bcd60e51b81526004016104bc906123d8565b336000611023856116ac565b90506000611030856116ac565b9050611041836000898585896114f0565b6000868152602081815260408083206001600160a01b038b16845290915281208054879290611071908490612461565b909155505060408051878152602081018790526001600160a01b03808a1692600092918716917fc3d58168c5ae7397731d063d5bbf3d657854427343f4c083240f7aacaa2d0f62910160405180910390a46110d1836000898989896116f7565b50505050505050565b6110e26117b2565b6004805460ff191660011790557f62e78cea01bee320cd4e420270b5ea74000d11b0c9f74754ebdbfc544b05a258610e373390565b816001600160a01b0316836001600160a01b03160361118a5760405162461bcd60e51b815260206004820152602960248201527f455243313135353a2073657474696e6720617070726f76616c20737461747573604482015268103337b91039b2b63360b91b60648201526084016104bc565b6001600160a01b03838116600081815260016020908152604080832094871680845294825291829020805460ff191686151590811790915591519182527f17307eab39ab6107e8899845ad3d59bd9653f200f220920489ca2b5937696c31910160405180910390a3505050565b6001600160a01b03841661121d5760405162461bcd60e51b81526004016104bc906124a2565b336000611229856116ac565b90506000611236856116ac565b90506112468389898585896114f0565b6000868152602081815260408083206001600160a01b038c168452909152902054858110156112875760405162461bcd60e51b81526004016104bc906124e7565b6000878152602081815260408083206001600160a01b038d8116855292528083208985039055908a168252812080548892906112c4908490612461565b909155505060408051888152602081018890526001600160a01b03808b16928c821692918816917fc3d58168c5ae7397731d063d5bbf3d657854427343f4c083240f7aacaa2d0f62910160405180910390a4611324848a8a8a8a8a6116f7565b505050505050505050565b6001600160a01b0383166113555760405162461bcd60e51b81526004016104bc90612531565b336000611361846116ac565b9050600061136e846116ac565b905061138e838760008585604051806020016040528060008152506114f0565b6000858152602081815260408083206001600160a01b038a168452909152902054848110156113cf5760405162461bcd60e51b81526004016104bc90612574565b6000868152602081815260408083206001600160a01b038b81168086529184528285208a8703905582518b81529384018a90529092908816917fc3d58168c5ae7397731d063d5bbf3d657854427343f4c083240f7aacaa2d0f62910160405180910390a46040805160208101909152600090526110d1565b60006001600160e01b03198216636cdb3d1360e11b148061147857506001600160e01b031982166303a24d0760e21b145b806104e857506301ffc9a760e01b6001600160e01b03198316146104e8565b6114a182826108f3565b61052c576114ae816117f8565b6114b983602061180a565b6040516020016114ca9291906125b8565b60408051601f198184030181529082905262461bcd60e51b82526104bc91600401611cf6565b6114f86117b2565b610d0d8686868686866119ac565b6001600160a01b0384163b15610d0d5760405163bc197c8160e01b81526001600160a01b0385169063bc197c819061154a908990899088908890889060040161262d565b6020604051808303816000875af1925050508015611585575060408051601f3d908101601f191682019092526115829181019061268b565b60015b611631576115916126a8565b806308c379a0036115ca57506115a56126c4565b806115b057506115cc565b8060405162461bcd60e51b81526004016104bc9190611cf6565b505b60405162461bcd60e51b815260206004820152603460248201527f455243313135353a207472616e7366657220746f206e6f6e2d455243313135356044820152732932b1b2b4bb32b91034b6b83632b6b2b73a32b960611b60648201526084016104bc565b6001600160e01b0319811663bc197c8160e01b146110d15760405162461bcd60e51b81526004016104bc9061274d565b60045460ff166116aa5760405162461bcd60e51b815260206004820152601460248201527314185d5cd8589b194e881b9bdd081c185d5cd95960621b60448201526064016104bc565b565b604080516001808252818301909252606091600091906020808301908036833701905050905082816000815181106116e6576116e661228e565b602090810291909101015292915050565b6001600160a01b0384163b15610d0d5760405163f23a6e6160e01b81526001600160a01b0385169063f23a6e619061173b9089908990889088908890600401612795565b6020604051808303816000875af1925050508015611776575060408051601f3d908101601f191682019092526117739181019061268b565b60015b611782576115916126a8565b6001600160e01b0319811663f23a6e6160e01b146110d15760405162461bcd60e51b81526004016104bc9061274d565b60045460ff16156116aa5760405162461bcd60e51b815260206004820152601060248201526f14185d5cd8589b194e881c185d5cd95960821b60448201526064016104bc565b60606104e86001600160a01b03831660145b606060006118198360026127da565b611824906002612461565b6001600160401b0381111561183b5761183b611b9e565b6040519080825280601f01601f191660200182016040528015611865576020820181803683370190505b509050600360fc1b816000815181106118805761188061228e565b60200101906001600160f81b031916908160001a905350600f60fb1b816001815181106118af576118af61228e565b60200101906001600160f81b031916908160001a90535060006118d38460026127da565b6118de906001612461565b90505b6001811115611956576f181899199a1a9b1b9c1cb0b131b232b360811b85600f16601081106119125761191261228e565b1a60f81b8282815181106119285761192861228e565b60200101906001600160f81b031916908160001a90535060049490941c9361194f816127f1565b90506118e1565b5083156119a55760405162461bcd60e51b815260206004820181905260248201527f537472696e67733a20686578206c656e67746820696e73756666696369656e7460448201526064016104bc565b9392505050565b6001600160a01b038516611a335760005b8351811015611a31578281815181106119d8576119d861228e565b6020026020010151600560008684815181106119f6576119f661228e565b602002602001015181526020019081526020016000206000828254611a1b9190612461565b90915550611a2a9050816122ba565b90506119bd565b505b6001600160a01b038416610d0d5760005b83518110156110d1576000848281518110611a6157611a6161228e565b602002602001015190506000848381518110611a7f57611a7f61228e565b6020026020010151905060006005600084815260200190815260200160002054905081811015611b025760405162461bcd60e51b815260206004820152602860248201527f455243313135353a206275726e20616d6f756e74206578636565647320746f74604482015267616c537570706c7960c01b60648201526084016104bc565b60009283526005602052604090922091039055611b1e816122ba565b9050611a44565b80356001600160a01b0381168114611b3c57600080fd5b919050565b60008060408385031215611b5457600080fd5b611b5d83611b25565b946020939093013593505050565b6001600160e01b03198116811461071c57600080fd5b600060208284031215611b9357600080fd5b81356119a581611b6b565b634e487b7160e01b600052604160045260246000fd5b601f8201601f191681016001600160401b0381118282101715611bd957611bd9611b9e565b6040525050565b60006001600160401b03831115611bf957611bf9611b9e565b604051611c10601f8501601f191660200182611bb4565b809150838152848484011115611c2557600080fd5b83836020830137600060208583010152509392505050565b600060208284031215611c4f57600080fd5b81356001600160401b03811115611c6557600080fd5b8201601f81018413611c7657600080fd5b611c8584823560208401611be0565b949350505050565b600060208284031215611c9f57600080fd5b5035919050565b60005b83811015611cc1578181015183820152602001611ca9565b50506000910152565b60008151808452611ce2816020860160208601611ca6565b601f01601f19169290920160200192915050565b6020815260006119a56020830184611cca565b60006001600160401b03821115611d2257611d22611b9e565b5060051b60200190565b600082601f830112611d3d57600080fd5b81356020611d4a82611d09565b604051611d578282611bb4565b83815260059390931b8501820192828101915086841115611d7757600080fd5b8286015b84811015611d925780358352918301918301611d7b565b509695505050505050565b600082601f830112611dae57600080fd5b6119a583833560208501611be0565b60008060008060808587031215611dd357600080fd5b611ddc85611b25565b935060208501356001600160401b0380821115611df857600080fd5b611e0488838901611d2c565b94506040870135915080821115611e1a57600080fd5b611e2688838901611d2c565b93506060870135915080821115611e3c57600080fd5b50611e4987828801611d9d565b91505092959194509250565b600080600080600060a08688031215611e6d57600080fd5b611e7686611b25565b9450611e8460208701611b25565b935060408601356001600160401b0380821115611ea057600080fd5b611eac89838a01611d2c565b94506060880135915080821115611ec257600080fd5b611ece89838a01611d2c565b93506080880135915080821115611ee457600080fd5b50611ef188828901611d9d565b9150509295509295909350565b60008060408385031215611f1157600080fd5b82359150611f2160208401611b25565b90509250929050565b60008060408385031215611f3d57600080fd5b82356001600160401b0380821115611f5457600080fd5b818501915085601f830112611f6857600080fd5b81356020611f7582611d09565b604051611f828282611bb4565b83815260059390931b8501820192828101915089841115611fa257600080fd5b948201945b83861015611fc757611fb886611b25565b82529482019490820190611fa7565b96505086013592505080821115611fdd57600080fd5b50611fea85828601611d2c565b9150509250929050565b600081518084526020808501945080840160005b8381101561202457815187529582019590820190600101612008565b509495945050505050565b6020815260006119a56020830184611ff4565b60008060006060848603121561205757600080fd5b61206084611b25565b925060208401356001600160401b038082111561207c57600080fd5b61208887838801611d2c565b9350604086013591508082111561209e57600080fd5b506120ab86828701611d2c565b9150509250925092565b600080600080608085870312156120cb57600080fd5b6120d485611b25565b9350602085013592506040850135915060608501356001600160401b038111156120fd57600080fd5b611e4987828801611d9d565b6000806040838503121561211c57600080fd5b61212583611b25565b91506020830135801515811461213a57600080fd5b809150509250929050565b6000806040838503121561215857600080fd5b61216183611b25565b9150611f2160208401611b25565b600080600080600060a0868803121561218757600080fd5b61219086611b25565b945061219e60208701611b25565b9350604086013592506060860135915060808601356001600160401b038111156121c757600080fd5b611ef188828901611d9d565b6000806000606084860312156121e857600080fd5b6121f184611b25565b95602085013595506040909401359392505050565b600181811c9082168061221a57607f821691505b60208210810361223a57634e487b7160e01b600052602260045260246000fd5b50919050565b6020808252602e908201527f455243313135353a2063616c6c6572206973206e6f7420746f6b656e206f776e60408201526d195c881bdc88185c1c1c9bdd995960921b606082015260800190565b634e487b7160e01b600052603260045260246000fd5b634e487b7160e01b600052601160045260246000fd5b6000600182016122cc576122cc6122a4565b5060010190565b601f82111561066b57600081815260208120601f850160051c810160208610156122fa5750805b601f850160051c820191505b81811015610d0d57828155600101612306565b81516001600160401b0381111561233257612332611b9e565b612346816123408454612206565b846122d3565b602080601f83116001811461237b57600084156123635750858301515b600019600386901b1c1916600185901b178555610d0d565b600085815260208120601f198616915b828110156123aa5788860151825594840194600190910190840161238b565b50858210156123c85787850151600019600388901b60f8161c191681555b5050505050600190811b01905550565b60208082526021908201527f455243313135353a206d696e7420746f20746865207a65726f206164647265736040820152607360f81b606082015260800190565b60208082526028908201527f455243313135353a2069647320616e6420616d6f756e7473206c656e677468206040820152670dad2e6dac2e8c6d60c31b606082015260800190565b808201808211156104e8576104e86122a4565b6040815260006124876040830185611ff4565b82810360208401526124998185611ff4565b95945050505050565b60208082526025908201527f455243313135353a207472616e7366657220746f20746865207a65726f206164604082015264647265737360d81b606082015260800190565b6020808252602a908201527f455243313135353a20696e73756666696369656e742062616c616e636520666f60408201526939103a3930b739b332b960b11b606082015260800190565b60208082526023908201527f455243313135353a206275726e2066726f6d20746865207a65726f206164647260408201526265737360e81b606082015260800190565b60208082526024908201527f455243313135353a206275726e20616d6f756e7420657863656564732062616c604082015263616e636560e01b606082015260800190565b7f416363657373436f6e74726f6c3a206163636f756e74200000000000000000008152600083516125f0816017850160208801611ca6565b7001034b99036b4b9b9b4b733903937b6329607d1b6017918401918201528351612621816028840160208801611ca6565b01602801949350505050565b6001600160a01b0386811682528516602082015260a06040820181905260009061265990830186611ff4565b828103606084015261266b8186611ff4565b9050828103608084015261267f8185611cca565b98975050505050505050565b60006020828403121561269d57600080fd5b81516119a581611b6b565b600060033d11156126c15760046000803e5060005160e01c5b90565b600060443d10156126d25790565b6040516003193d81016004833e81513d6001600160401b03816024840111818411171561270157505050505090565b82850191508151818111156127195750505050505090565b843d87010160208285010111156127335750505050505090565b61274260208286010187611bb4565b509095945050505050565b60208082526028908201527f455243313135353a204552433131353552656365697665722072656a656374656040820152676420746f6b656e7360c01b606082015260800190565b6001600160a01b03868116825285166020820152604081018490526060810183905260a0608082018190526000906127cf90830184611cca565b979650505050505050565b80820281158282048414176104e8576104e86122a4565b600081612800576128006122a4565b50600019019056fea26469706673582212205629aeeb6be7241d4ff08f9431aba091e4316fec4182cef1313a0ad891317c6064736f6c63430008130033",
  "linkReferences": {},
  "deployedLinkReferences": {}
}