{
  "_format": "hh-sol-artifact-1",
  "contractName": "KOINECTMarketplace",
  "sourceName": "contracts/KOINECTMarketplace.sol",
  "abi": [
    {
      "inputs": [],
      "stateMutability": "nonpayable",
      "type": "constructor"
    },
    {
      "anonymous": false,
      "inputs": [
        {
          "indexed": true,
          "internalType": "address",
          "name": "account",
          "type": "address"
        },
        {
          "indexed": true,
          "internalType": "address",
          "name": "operator",
          "type": "address"
        },
        {
          "indexed": false,
          "internalType": "bool",
          "name": "approved",
          "type": "bool"
        }
      ],
      "name": "ApprovalForAll",
      "type": "event"
    },
    {
      "anonymous": false,
      "inputs": [
        {
          "indexed": false,
          "internalType": "address",
          "name": "account",
          "type": "address"
        }
      ],
      "name": "Paused",
      "type": "event"
    },
    {
      "anonymous": false,
      "inputs": [
        {
          "indexed": true,
          "internalType": "address",
          "name": "operator",
          "type": "address"
        },
        {
          "indexed": true,
          "internalType": "address",
          "name": "from",
          "type": "address"
        },
        {
          "indexed": true,
          "internalType": "address",
          "name": "to",
          "type": "address"
        },
        {
          "indexed": false,
          "internalType": "uint256[]",
          "name": "ids",
          "type": "uint256[]"
        },
        {
          "indexed": false,
          "internalType": "uint256[]",
          "name": "values",
          "type": "uint256[]"
        }
      ],
      "name": "TransferBatch",
      "type": "event"
    },
    {
      "anonymous": false,
      "inputs": [
        {
          "indexed": true,
          "internalType": "address",
          "name": "operator",
          "type": "address"
        },
        {
          "indexed": true,
          "internalType": "address",
          "name": "from",
          "type": "address"
        },
        {
          "indexed": true,
          "internalType": "address",
          "name": "to",
          "type": "address"
        },
        {
          "indexed": false,
          "internalType": "uint256",
          "name": "id",
          "type": "uint256"
        },
        {
          "indexed": false,
          "internalType": "uint256",
          "name": "value",
          "type": "uint256"
        }
      ],
      "name": "TransferSingle",
      "type": "event"
    },
    {
      "anonymous": false,
      "inputs": [
        {
          "indexed": false,
          "internalType": "string",
          "name": "value",
          "type": "string"
        },
        {
          "indexed": true,
          "internalType": "uint256",
          "name": "id",
          "type": "uint256"
        }
      ],
      "name": "URI",
      "type": "event"
    },
    {
      "anonymous": false,
      "inputs": [
        {
          "indexed": false,
          "internalType": "address",
          "name": "account",
          "type": "address"
        }
      ],
      "name": "Unpaused",
      "type": "event"
    },
    {
      "inputs": [
        {
          "internalType": "address",
          "name": "account",
          "type": "address"
        },
        {
          "internalType": "uint256",
          "name": "id",
          "type": "uint256"
        }
      ],
      "name": "balanceOf",
      "outputs": [
        {
          "internalType": "uint256",
          "name": "",
          "type": "uint256"
        }
      ],
      "stateMutability": "view",
      "type": "function"
    },
    {
      "inputs": [
        {
          "internalType": "address[]",
          "name": "accounts",
          "type": "address[]"
        },
        {
          "internalType": "uint256[]",
          "name": "ids",
          "type": "uint256[]"
        }
      ],
      "name": "balanceOfBatch",
      "outputs": [
        {
          "internalType": "uint256[]",
          "name": "",
          "type": "uint256[]"
        }
      ],
      "stateMutability": "view",
      "type": "function"
    },
    {
      "inputs": [
        {
          "internalType": "address",
          "name": "account",
          "type": "address"
        },
        {
          "internalType": "uint256",
          "name": "id",
          "type": "uint256"
        },
        {
          "internalType": "uint256",
          "name": "value",
          "type": "uint256"
        }
      ],
      "name": "burn",
      "outputs": [],
      "stateMutability": "nonpayable",
      "type": "function"
    },
    {
      "inputs": [
        {
          "internalType": "address",
          "name": "account",
          "type": "address"
        },
        {
          "internalType": "uint256[]",
          "name": "ids",
          "type": "uint256[]"
        },
        {
          "internalType": "uint256[]",
          "name": "values",
          "type": "uint256[]"
        }
      ],
      "name": "burnBatch",
      "outputs": [],
      "stateMutability": "nonpayable",
      "type": "function"
    },
    {
      "inputs": [],
      "name": "contractURI",
      "outputs": [
        {
          "internalType": "string",
          "name": "",
          "type": "string"
        }
      ],
      "stateMutability": "pure",
      "type": "function"
    },
    {
      "inputs": [
        {
          "internalType": "uint256",
          "name": "id",
          "type": "uint256"
        }
      ],
      "name": "exists",
      "outputs": [
        {
          "internalType": "bool",
          "name": "",
          "type": "bool"
        }
      ],
      "stateMutability": "view",
      "type": "function"
    },
    {
      "inputs": [
        {
          "internalType": "address",
          "name": "account",
          "type": "address"
        },
        {
          "internalType": "address",
          "name": "operator",
          "type": "address"
        }
      ],
      "name": "isApprovedForAll",
      "outputs": [
        {
          "internalType": "bool",
          "name": "",
          "type": "bool"
        }
      ],
      "stateMutability": "view",
      "type": "function"
    },
    {
      "inputs": [
        {
          "internalType": "address",
          "name": "account",
          "type": "address"
        },
        {
          "internalType": "uint256",
          "name": "id",
          "type": "uint256"
        },
        {
          "internalType": "uint256",
          "name": "amount",
          "type": "uint256"
        },
        {
          "internalType": "bytes",
          "name": "data",
          "type": "bytes"
        }
      ],
      "name": "mint",
      "outputs": [],
      "stateMutability": "nonpayable",
      "type": "function"
    },
    {
      "inputs": [
        {
          "internalType": "address",
          "name": "to",
          "type": "address"
        },
        {
          "internalType": "uint256[]",
          "name": "ids",
          "type": "uint256[]"
        },
        {
          "internalType": "uint256[]",
          "name": "amounts",
          "type": "uint256[]"
        },
        {
          "internalType": "bytes",
          "name": "data",
          "type": "bytes"
        }
      ],
      "name": "mintBatch",
      "outputs": [],
      "stateMutability": "nonpayable",
      "type": "function"
    },
    {
      "inputs": [],
      "name": "name",
      "outputs": [
        {
          "internalType": "string",
          "name": "",
          "type": "string"
        }
      ],
      "stateMutability": "view",
      "type": "function"
    },
    {
      "inputs": [],
      "name": "pause",
      "outputs": [],
      "stateMutability": "nonpayable",
      "type": "function"
    },
    {
      "inputs": [],
      "name": "paused",
      "outputs": [
        {
          "internalType": "bool",
          "name": "",
          "type": "bool"
        }
      ],
      "stateMutability": "view",
      "type": "function"
    },
    {
      "inputs": [
        {
          "internalType": "address",
          "name": "from",
          "type": "address"
        },
        {
          "internalType": "address",
          "name": "to",
          "type": "address"
        },
        {
          "internalType": "uint256[]",
          "name": "ids",
          "type": "uint256[]"
        },
        {
          "internalType": "uint256[]",
          "name": "amounts",
          "type": "uint256[]"
        },
        {
          "internalType": "bytes",
          "name": "data",
          "type": "bytes"
        }
      ],
      "name": "safeBatchTransferFrom",
      "outputs": [],
      "stateMutability": "nonpayable",
      "type": "function"
    },
    {
      "inputs": [
        {
          "internalType": "address",
          "name": "from",
          "type": "address"
        },
        {
          "internalType": "address",
          "name": "to",
          "type": "address"
        },
        {
          "internalType": "uint256",
          "name": "id",
          "type": "uint256"
        },
        {
          "internalType": "uint256",
          "name": "amount",
          "type": "uint256"
        },
        {
          "internalType": "bytes",
          "name": "data",
          "type": "bytes"
        }
      ],
      "name": "safeTransferFrom",
      "outputs": [],
      "stateMutability": "nonpayable",
      "type": "function"
    },
    {
      "inputs": [
        {
          "internalType": "address",
          "name": "operator",
          "type": "address"
        },
        {
          "internalType": "bool",
          "name": "approved",
          "type": "bool"
        }
      ],
      "name": "setApprovalForAll",
      "outputs": [],
      "stateMutability": "nonpayable",
      "type": "function"
    },
    {
      "inputs": [
        {
          "internalType": "string",
          "name": "newuri",
          "type": "string"
        }
      ],
      "name": "setURI",
      "outputs": [],
      "stateMutability": "nonpayable",
      "type": "function"
    },
    {
      "inputs": [
        {
          "internalType": "bytes4",
          "name": "interfaceId",
          "type": "bytes4"
        }
      ],
      "name": "supportsInterface",
      "outputs": [
        {
          "internalType": "bool",
          "name": "",
          "type": "bool"
        }
      ],
      "stateMutability": "view",
      "type": "function"
    },
    {
      "inputs": [
        {
          "internalType": "uint256",
          "name": "id",
          "type": "uint256"
        }
      ],
      "name": "totalSupply",
      "outputs": [
        {
          "internalType": "uint256",
          "name": "",
          "type": "uint256"
        }
      ],
      "stateMutability": "view",
      "type": "function"
    },
    {
      "inputs": [],
      "name": "unpause",
      "outputs": [],
      "stateMutability": "nonpayable",
      "type": "function"
    },
    {
      "inputs": [
        {
          "internalType": "uint256",
          "name": "",
          "type": "uint256"
        }
      ],
      "name": "uri",
      "outputs": [
        {
          "internalType": "string",
          "name": "",
          "type": "string"
        }
      ],
      "stateMutability": "view",
      "type": "function"
    }
  ],
  "bytecode": "0x60c0604052601360809081527f4b6f696e656374204d61726b6574706c6163650000000000000000000000000060a0526005906200003e90826200012f565b503480156200004c57600080fd5b50604080516020810190915260008152620000678162000078565b506003805460ff19169055620001fb565b60026200008682826200012f565b5050565b634e487b7160e01b600052604160045260246000fd5b600181811c90821680620000b557607f821691505b602082108103620000d657634e487b7160e01b600052602260045260246000fd5b50919050565b601f8211156200012a57600081815260208120601f850160051c81016020861015620001055750805b601f850160051c820191505b81811015620001265782815560010162000111565b5050505b505050565b81516001600160401b038111156200014b576200014b6200008a565b62000163816200015c8454620000a0565b84620000dc565b602080601f8311600181146200019b5760008415620001825750858301515b600019600386901b1c1916600185901b17855562000126565b600085815260208120601f198616915b82811015620001cc57888601518255948401946001909101908401620001ab565b5085821015620001eb5787850151600019600388901b60f8161c191681555b5050505050600190811b01905550565b6122a8806200020b6000396000f3fe608060405234801561001057600080fd5b506004361061012b5760003560e01c80635c975abb116100ad578063bd85b03911610071578063bd85b03914610272578063e8a3d48514610292578063e985e9c51461029a578063f242432a146102d6578063f5298aca146102e957600080fd5b80635c975abb146102265780636b20c45414610231578063731133e9146102445780638456cb5914610257578063a22cb4651461025f57600080fd5b80631f7fdffa116100f45780631f7fdffa146101b65780632eb2c2d6146101c95780633f4ba83a146101dc5780634e1273f4146101e45780634f558e791461020457600080fd5b8062fdd58e1461013057806301ffc9a71461015657806302fe53051461017957806306fdde031461018e5780630e89341c146101a3575b600080fd5b61014361013e3660046115cb565b6102fc565b6040519081526020015b60405180910390f35b61016961016436600461160b565b610395565b604051901515815260200161014d565b61018c6101873660046116ce565b6103e5565b005b6101966103f1565b60405161014d919061176e565b6101966101b1366004611781565b61047f565b61018c6101c436600461184e565b610513565b61018c6101d73660046118e6565b610525565b61018c610571565b6101f76101f236600461198f565b61057b565b60405161014d9190611a94565b610169610212366004611781565b600090815260046020526040902054151590565b60035460ff16610169565b61018c61023f366004611aa7565b6106a4565b61018c610252366004611b1a565b6106ec565b61018c6106f8565b61018c61026d366004611b6e565b610700565b610143610280366004611781565b60009081526004602052604090205490565b61019661070f565b6101696102a8366004611baa565b6001600160a01b03918216600090815260016020908152604080832093909416825291909152205460ff1690565b61018c6102e4366004611bdd565b610754565b61018c6102f7366004611c41565b610799565b60006001600160a01b03831661036c5760405162461bcd60e51b815260206004820152602a60248201527f455243313135353a2061646472657373207a65726f206973206e6f742061207660448201526930b634b21037bbb732b960b11b60648201526084015b60405180910390fd5b506000818152602081815260408083206001600160a01b03861684529091529020545b92915050565b60006001600160e01b03198216636cdb3d1360e11b14806103c657506001600160e01b031982166303a24d0760e21b145b8061038f57506301ffc9a760e01b6001600160e01b031983161461038f565b6103ee816107dc565b50565b600580546103fe90611c74565b80601f016020809104026020016040519081016040528092919081815260200182805461042a90611c74565b80156104775780601f1061044c57610100808354040283529160200191610477565b820191906000526020600020905b81548152906001019060200180831161045a57829003601f168201915b505050505081565b60606002805461048e90611c74565b80601f01602080910402602001604051908101604052809291908181526020018280546104ba90611c74565b80156105075780601f106104dc57610100808354040283529160200191610507565b820191906000526020600020905b8154815290600101906020018083116104ea57829003601f168201915b50505050509050919050565b61051f848484846107e8565b50505050565b6001600160a01b038516331480610541575061054185336102a8565b61055d5760405162461bcd60e51b815260040161036390611cae565b61056a8585858585610942565b5050505050565b610579610aec565b565b606081518351146105e05760405162461bcd60e51b815260206004820152602960248201527f455243313135353a206163636f756e747320616e6420696473206c656e677468604482015268040dad2e6dac2e8c6d60bb1b6064820152608401610363565b600083516001600160401b038111156105fb576105fb61162f565b604051908082528060200260200182016040528015610624578160200160208202803683370190505b50905060005b845181101561069c5761066f85828151811061064857610648611cfc565b602002602001015185838151811061066257610662611cfc565b60200260200101516102fc565b82828151811061068157610681611cfc565b602090810291909101015261069581611d28565b905061062a565b509392505050565b6001600160a01b0383163314806106c057506106c083336102a8565b6106dc5760405162461bcd60e51b815260040161036390611cae565b6106e7838383610b3e565b505050565b61051f84848484610cda565b610579610dc3565b61070b338383610e00565b5050565b606060006040518060800160405280605a8152602001612219605a913990508060405160200161073f9190611d41565b60405160208183030381529060405291505090565b6001600160a01b038516331480610770575061077085336102a8565b61078c5760405162461bcd60e51b815260040161036390611cae565b61056a8585858585610ee0565b6001600160a01b0383163314806107b557506107b583336102a8565b6107d15760405162461bcd60e51b815260040161036390611cae565b6106e7838383611018565b600261070b8282611dcc565b6001600160a01b03841661080e5760405162461bcd60e51b815260040161036390611e8b565b815183511461082f5760405162461bcd60e51b815260040161036390611ecc565b3361083f81600087878787611130565b60005b84518110156108da5783818151811061085d5761085d611cfc565b602002602001015160008087848151811061087a5761087a611cfc565b602002602001015181526020019081526020016000206000886001600160a01b03166001600160a01b0316815260200190815260200160002060008282546108c29190611f14565b909155508190506108d281611d28565b915050610842565b50846001600160a01b031660006001600160a01b0316826001600160a01b03167f4a39dc06d4c0dbc64b70af90fd698a233a518aa5d07e595d983b8c0526c8f7fb878760405161092b929190611f27565b60405180910390a461056a81600087878787611146565b81518351146109635760405162461bcd60e51b815260040161036390611ecc565b6001600160a01b0384166109895760405162461bcd60e51b815260040161036390611f55565b33610998818787878787611130565b60005b8451811015610a7e5760008582815181106109b8576109b8611cfc565b6020026020010151905060008583815181106109d6576109d6611cfc565b602090810291909101810151600084815280835260408082206001600160a01b038e168352909352919091205490915081811015610a265760405162461bcd60e51b815260040161036390611f9a565b6000838152602081815260408083206001600160a01b038e8116855292528083208585039055908b16825281208054849290610a63908490611f14565b9250508190555050505080610a7790611d28565b905061099b565b50846001600160a01b0316866001600160a01b0316826001600160a01b03167f4a39dc06d4c0dbc64b70af90fd698a233a518aa5d07e595d983b8c0526c8f7fb8787604051610ace929190611f27565b60405180910390a4610ae4818787878787611146565b505050505050565b610af46112a1565b6003805460ff191690557f5db9ee0a495bf2e6ff9c91a7834c1ba4fdd244a5e8aa4e537bd38aeae4b073aa335b6040516001600160a01b03909116815260200160405180910390a1565b6001600160a01b038316610b645760405162461bcd60e51b815260040161036390611fe4565b8051825114610b855760405162461bcd60e51b815260040161036390611ecc565b6000339050610ba881856000868660405180602001604052806000815250611130565b60005b8351811015610c6d576000848281518110610bc857610bc8611cfc565b602002602001015190506000848381518110610be657610be6611cfc565b602090810291909101810151600084815280835260408082206001600160a01b038c168352909352919091205490915081811015610c365760405162461bcd60e51b815260040161036390612027565b6000928352602083815260408085206001600160a01b038b1686529091529092209103905580610c6581611d28565b915050610bab565b5060006001600160a01b0316846001600160a01b0316826001600160a01b03167f4a39dc06d4c0dbc64b70af90fd698a233a518aa5d07e595d983b8c0526c8f7fb8686604051610cbe929190611f27565b60405180910390a460408051602081019091526000905261051f565b6001600160a01b038416610d005760405162461bcd60e51b815260040161036390611e8b565b336000610d0c856112ea565b90506000610d19856112ea565b9050610d2a83600089858589611130565b6000868152602081815260408083206001600160a01b038b16845290915281208054879290610d5a908490611f14565b909155505060408051878152602081018790526001600160a01b03808a1692600092918716917fc3d58168c5ae7397731d063d5bbf3d657854427343f4c083240f7aacaa2d0f62910160405180910390a4610dba83600089898989611335565b50505050505050565b610dcb6113f0565b6003805460ff191660011790557f62e78cea01bee320cd4e420270b5ea74000d11b0c9f74754ebdbfc544b05a258610b213390565b816001600160a01b0316836001600160a01b031603610e735760405162461bcd60e51b815260206004820152602960248201527f455243313135353a2073657474696e6720617070726f76616c20737461747573604482015268103337b91039b2b63360b91b6064820152608401610363565b6001600160a01b03838116600081815260016020908152604080832094871680845294825291829020805460ff191686151590811790915591519182527f17307eab39ab6107e8899845ad3d59bd9653f200f220920489ca2b5937696c31910160405180910390a3505050565b6001600160a01b038416610f065760405162461bcd60e51b815260040161036390611f55565b336000610f12856112ea565b90506000610f1f856112ea565b9050610f2f838989858589611130565b6000868152602081815260408083206001600160a01b038c16845290915290205485811015610f705760405162461bcd60e51b815260040161036390611f9a565b6000878152602081815260408083206001600160a01b038d8116855292528083208985039055908a16825281208054889290610fad908490611f14565b909155505060408051888152602081018890526001600160a01b03808b16928c821692918816917fc3d58168c5ae7397731d063d5bbf3d657854427343f4c083240f7aacaa2d0f62910160405180910390a461100d848a8a8a8a8a611335565b505050505050505050565b6001600160a01b03831661103e5760405162461bcd60e51b815260040161036390611fe4565b33600061104a846112ea565b90506000611057846112ea565b905061107783876000858560405180602001604052806000815250611130565b6000858152602081815260408083206001600160a01b038a168452909152902054848110156110b85760405162461bcd60e51b815260040161036390612027565b6000868152602081815260408083206001600160a01b038b81168086529184528285208a8703905582518b81529384018a90529092908816917fc3d58168c5ae7397731d063d5bbf3d657854427343f4c083240f7aacaa2d0f62910160405180910390a4604080516020810190915260009052610dba565b6111386113f0565b610ae4868686868686611436565b6001600160a01b0384163b15610ae45760405163bc197c8160e01b81526001600160a01b0385169063bc197c819061118a908990899088908890889060040161206b565b6020604051808303816000875af19250505080156111c5575060408051601f3d908101601f191682019092526111c2918101906120c9565b60015b611271576111d16120e6565b806308c379a00361120a57506111e5612102565b806111f0575061120c565b8060405162461bcd60e51b8152600401610363919061176e565b505b60405162461bcd60e51b815260206004820152603460248201527f455243313135353a207472616e7366657220746f206e6f6e2d455243313135356044820152732932b1b2b4bb32b91034b6b83632b6b2b73a32b960611b6064820152608401610363565b6001600160e01b0319811663bc197c8160e01b14610dba5760405162461bcd60e51b81526004016103639061218b565b60035460ff166105795760405162461bcd60e51b815260206004820152601460248201527314185d5cd8589b194e881b9bdd081c185d5cd95960621b6044820152606401610363565b6040805160018082528183019092526060916000919060208083019080368337019050509050828160008151811061132457611324611cfc565b602090810291909101015292915050565b6001600160a01b0384163b15610ae45760405163f23a6e6160e01b81526001600160a01b0385169063f23a6e619061137990899089908890889088906004016121d3565b6020604051808303816000875af19250505080156113b4575060408051601f3d908101601f191682019092526113b1918101906120c9565b60015b6113c0576111d16120e6565b6001600160e01b0319811663f23a6e6160e01b14610dba5760405162461bcd60e51b81526004016103639061218b565b60035460ff16156105795760405162461bcd60e51b815260206004820152601060248201526f14185d5cd8589b194e881c185d5cd95960821b6044820152606401610363565b6001600160a01b0385166114bd5760005b83518110156114bb5782818151811061146257611462611cfc565b60200260200101516004600086848151811061148057611480611cfc565b6020026020010151815260200190815260200160002060008282546114a59190611f14565b909155506114b4905081611d28565b9050611447565b505b6001600160a01b038416610ae45760005b8351811015610dba5760008482815181106114eb576114eb611cfc565b60200260200101519050600084838151811061150957611509611cfc565b602002602001015190506000600460008481526020019081526020016000205490508181101561158c5760405162461bcd60e51b815260206004820152602860248201527f455243313135353a206275726e20616d6f756e74206578636565647320746f74604482015267616c537570706c7960c01b6064820152608401610363565b600092835260046020526040909220910390556115a881611d28565b90506114ce565b80356001600160a01b03811681146115c657600080fd5b919050565b600080604083850312156115de57600080fd5b6115e7836115af565b946020939093013593505050565b6001600160e01b0319811681146103ee57600080fd5b60006020828403121561161d57600080fd5b8135611628816115f5565b9392505050565b634e487b7160e01b600052604160045260246000fd5b601f8201601f191681016001600160401b038111828210171561166a5761166a61162f565b6040525050565b60006001600160401b0383111561168a5761168a61162f565b6040516116a1601f8501601f191660200182611645565b8091508381528484840111156116b657600080fd5b83836020830137600060208583010152509392505050565b6000602082840312156116e057600080fd5b81356001600160401b038111156116f657600080fd5b8201601f8101841361170757600080fd5b61171684823560208401611671565b949350505050565b60005b83811015611739578181015183820152602001611721565b50506000910152565b6000815180845261175a81602086016020860161171e565b601f01601f19169290920160200192915050565b6020815260006116286020830184611742565b60006020828403121561179357600080fd5b5035919050565b60006001600160401b038211156117b3576117b361162f565b5060051b60200190565b600082601f8301126117ce57600080fd5b813560206117db8261179a565b6040516117e88282611645565b83815260059390931b850182019282810191508684111561180857600080fd5b8286015b84811015611823578035835291830191830161180c565b509695505050505050565b600082601f83011261183f57600080fd5b61162883833560208501611671565b6000806000806080858703121561186457600080fd5b61186d856115af565b935060208501356001600160401b038082111561188957600080fd5b611895888389016117bd565b945060408701359150808211156118ab57600080fd5b6118b7888389016117bd565b935060608701359150808211156118cd57600080fd5b506118da8782880161182e565b91505092959194509250565b600080600080600060a086880312156118fe57600080fd5b611907866115af565b9450611915602087016115af565b935060408601356001600160401b038082111561193157600080fd5b61193d89838a016117bd565b9450606088013591508082111561195357600080fd5b61195f89838a016117bd565b9350608088013591508082111561197557600080fd5b506119828882890161182e565b9150509295509295909350565b600080604083850312156119a257600080fd5b82356001600160401b03808211156119b957600080fd5b818501915085601f8301126119cd57600080fd5b813560206119da8261179a565b6040516119e78282611645565b83815260059390931b8501820192828101915089841115611a0757600080fd5b948201945b83861015611a2c57611a1d866115af565b82529482019490820190611a0c565b96505086013592505080821115611a4257600080fd5b50611a4f858286016117bd565b9150509250929050565b600081518084526020808501945080840160005b83811015611a8957815187529582019590820190600101611a6d565b509495945050505050565b6020815260006116286020830184611a59565b600080600060608486031215611abc57600080fd5b611ac5846115af565b925060208401356001600160401b0380821115611ae157600080fd5b611aed878388016117bd565b93506040860135915080821115611b0357600080fd5b50611b10868287016117bd565b9150509250925092565b60008060008060808587031215611b3057600080fd5b611b39856115af565b9350602085013592506040850135915060608501356001600160401b03811115611b6257600080fd5b6118da8782880161182e565b60008060408385031215611b8157600080fd5b611b8a836115af565b915060208301358015158114611b9f57600080fd5b809150509250929050565b60008060408385031215611bbd57600080fd5b611bc6836115af565b9150611bd4602084016115af565b90509250929050565b600080600080600060a08688031215611bf557600080fd5b611bfe866115af565b9450611c0c602087016115af565b9350604086013592506060860135915060808601356001600160401b03811115611c3557600080fd5b6119828882890161182e565b600080600060608486031215611c5657600080fd5b611c5f846115af565b95602085013595506040909401359392505050565b600181811c90821680611c8857607f821691505b602082108103611ca857634e487b7160e01b600052602260045260246000fd5b50919050565b6020808252602e908201527f455243313135353a2063616c6c6572206973206e6f7420746f6b656e206f776e60408201526d195c881bdc88185c1c1c9bdd995960921b606082015260800190565b634e487b7160e01b600052603260045260246000fd5b634e487b7160e01b600052601160045260246000fd5b600060018201611d3a57611d3a611d12565b5060010190565b7f646174613a6170706c69636174696f6e2f6a736f6e3b757466382c0000000000815260008251611d7981601b85016020870161171e565b91909101601b0192915050565b601f8211156106e757600081815260208120601f850160051c81016020861015611dad5750805b601f850160051c820191505b81811015610ae457828155600101611db9565b81516001600160401b03811115611de557611de561162f565b611df981611df38454611c74565b84611d86565b602080601f831160018114611e2e5760008415611e165750858301515b600019600386901b1c1916600185901b178555610ae4565b600085815260208120601f198616915b82811015611e5d57888601518255948401946001909101908401611e3e565b5085821015611e7b5787850151600019600388901b60f8161c191681555b5050505050600190811b01905550565b60208082526021908201527f455243313135353a206d696e7420746f20746865207a65726f206164647265736040820152607360f81b606082015260800190565b60208082526028908201527f455243313135353a2069647320616e6420616d6f756e7473206c656e677468206040820152670dad2e6dac2e8c6d60c31b606082015260800190565b8082018082111561038f5761038f611d12565b604081526000611f3a6040830185611a59565b8281036020840152611f4c8185611a59565b95945050505050565b60208082526025908201527f455243313135353a207472616e7366657220746f20746865207a65726f206164604082015264647265737360d81b606082015260800190565b6020808252602a908201527f455243313135353a20696e73756666696369656e742062616c616e636520666f60408201526939103a3930b739b332b960b11b606082015260800190565b60208082526023908201527f455243313135353a206275726e2066726f6d20746865207a65726f206164647260408201526265737360e81b606082015260800190565b60208082526024908201527f455243313135353a206275726e20616d6f756e7420657863656564732062616c604082015263616e636560e01b606082015260800190565b6001600160a01b0386811682528516602082015260a06040820181905260009061209790830186611a59565b82810360608401526120a98186611a59565b905082810360808401526120bd8185611742565b98975050505050505050565b6000602082840312156120db57600080fd5b8151611628816115f5565b600060033d11156120ff5760046000803e5060005160e01c5b90565b600060443d10156121105790565b6040516003193d81016004833e81513d6001600160401b03816024840111818411171561213f57505050505090565b82850191508151818111156121575750505050505090565b843d87010160208285010111156121715750505050505090565b61218060208286010187611645565b509095945050505050565b60208082526028908201527f455243313135353a204552433131353552656365697665722072656a656374656040820152676420746f6b656e7360c01b606082015260800190565b6001600160a01b03868116825285166020820152604081018490526060810183905260a06080820181905260009061220d90830184611742565b97965050505050505056fe7b22696d616765223a2268747470733a2f2f6b6e66742d6d61726b6574696e672e73332e75732d656173742d322e616d617a6f6e6177732e636f6d2f696d616765732f4b2b55502b70696e6b2b62672b626c75652e706e67227da26469706673582212204f338bb02731601f8ffc58a32aa6c039ac3209d0f8f19bf52f85529e2437af3164736f6c63430008130033",
  "linkReferences": {},
  "deployedLinkReferences": {}
}